:04098F00020C000056
:040962008E088F0963
:10096600E5091509AE0870021508FFEF4E60197506
:100976000A03750BB6E50B150BAE0A7002150AFFD6
:08098600EF4E60DC80EF80D829
:01098E002246
:10091C007593007594FFD2AF75AD04C2DC75DF1111
:10092C0075DE11D2DEAF0DEFF4F580C293C292D218
:10093C00927FF47E01120962D2937FF47E01120938
:10094C0062C2927FF47E01120962C2937FF47E012F
:06095C0012096280DA229C
:03005300020800A0
:10080000C0E0C0D075D000C007C2DF30DC39C2DC28
:10081000E5DE30E41A75DE2130970A050DE50D702E
:1008200002050C8022E50D150D7002150C8018755F
:10083000DE1120970A050DE50D7002050C8008E514
:100840000D150D7002150C30DD39C2DDE5DF30E429
:100850001A75DF2130960AE50D150D7002150C8012
:1008600022050DE50D7002050C801875DF1120962C
:100870000AE50D150D7002150C8008050DE50D70CB
:1008800002050CAF0DEFF4F580D007D0D0D0E032E8
:0300000002089063
:0C089000787FE4F6D8FD75810D0208D7D2
:10089C0002091CE493A3F8E493A34003F68001F24D
:1008AC0008DFF48029E493A3F85407240CC8C3335D
:1008BC00C4540F4420C8834004F456800146F6DF2C
:1008CC00E4800B010204081020408090098FE47E24
:1008DC00019360BCA3FF543F30E509541FFEE49321
:1008EC00A360010ECF54C025E060A840B8E493A3E8
:1008FC00FAE493A3F8E493A3C8C582C8CAC583CA13
:10090C00F0A3C8C582C8CAC583CADFE9DEE780BECA
:010993000063
:00000001FF
