:0300230002097D52
:10097D00C0E0C083C082C0D030981C74C02521F562
:10098D0082E43401F583E599F0C29805210523E54C
:10099D0021B44003752100309905C299752400D00A
:0809AD00D0D082D083D0E032EB
:1006430012011001020000086A0E160306010102DE
:1006530000010403090430034D00650067006100D5
:10066300770069006E002000540065006300680095
:100673006E006F006C006F00670079002000490076
:100683006E0063002E001A034500610073007900B9
:1006930043004F004D005F005500410052005400DD
:0E06A3000E033600320031003000330031000B
:100B7C00120C67120B0630000E7B017A027900AF63
:100B8C00271209B5120003120A7D1202621207DE47
:020B9C0080E4F3
:100A7D00E52630E00D54FEF526438702E5264404B5
:100A8D00F526AF26EF1313543F30E005EF54FBF579
:0F0A9D0026AF26EFC31330E005EF54FDF52622F8
:030C5E000125006D
:1007DE00E5236045C2ACE5222523FFE433FED3EFCB
:1007EE009440EE64809480400874409522F52580F4
:1007FE0003852325C3E5239525F523D2AC74C025A7
:10080E0022F9E43401FA7B01AF251206B1E5252564
:0A081E0022F522B44003E4F5222283
:0809B5008F158B168A178918B3
:1009BD00E4F519E519C395155021E524640160FA94
:1009CD00752401AB16AA17A9188519827583001213
:0B09DD000343F59905191207DE80D8CE
:0109E80022EC
:050C7000E47848F622C3
:10026200783BE6700302030F081203921203B702EF
:10027200B1000004B002B60000096002C40000121E
:10028200C002FA00001C2002C90000258002FF0003
:1002920000384002D100004B0002D6000096000256
:1002A200E40000E10002EC0001C2000000030B5375
:1002B200877F800343878053A6BF758BCC758DCC17
:1002C200804753877F800343878053A6BF80215393
:1002D200877F800343878043A640758BD9758DD96C
:1002E200802753877F43A640800643878043A640EA
:1002F200758BF3758DF3801153877F80034387805D
:1003020043A640758B98758D98E4783BF67843E662
:100312006002E4F67845E66002E4F6120C70784872
:08032200E6FF600312093E2210
:100B0600783B76010812039E00002580120262E4FB
:100B1600F521F522F523F524438E2043B8104389A9
:090B260020759850D2ACD28E2249
:100A1D0000000000000000000000000000000000C9
:100A2D0000000000000000000000000000000000B9
:100A3D000000000000000000000000000000002287
:0E0C4600EF600A7EC8120A1DDEFB1F80F3223B
:03007B00020BBFB6
:100BBF00C0E0C0F0C083C082C0D075D008851FE1EF
:0E0BCF0012007ED0D0D082D083D0F0D0E032A1
:100B5800E4F5A875AD80F5D085E11F431F1775C76B
:100B68005843BF04E5BF30E1FB43BF087FFF120CC9
:040B780046D2AF2290
:090C6700120B58120C10020026B9
:1008BA000902430002010080320904000001020219
:1008CA000100052400100105240101010424020687
:1008DA0005240600010705810340001009040100F0
:1008EA00020A000000070582024000000705030211
:0308FA00400000BB
:050C6100C100012700A5
:1000260090FFD9E4F090FFF1F090FFE17405F0E065
:1000360044C0F090FFF47480F090FFE4F090FFDA93
:100046007417F090FFDC7402F090FFD97406F0E4A8
:100056007829F618F67839F608F6E52654FEF526D8
:1000660054FDF52654FBF52654F7F52690FFC9E016
:040076004480F022B0
:060B2F007B007A00792B27
:100B35008B128A138914E4FFEFC39D501590FFE3D0
:100B4500E0AB12AA13A9148F827583001203700FEC
:030B550080E62215
:0D0A4D007833CBE6CB08E6FA08E6F9AD11E8
:100A5A008B128A138914E4FFEFC39D5015AB12AAB7
:100A6A0013A9148F8275830012034390FFF3F00FCA
:030A7A0080E622F1
:1004A20090FFF47480F090FFE2E054306048782AC4
:1004B20076F090FFE2E020E5F990FFE2E030E4F927
:1004C20090FFE2E054EFF090FFDB7402F090FFE661
:1004D200E0F511FD120B2F90FFE2E0543070D39043
:1004E200FFE1E0543FF0A3E054BFF0AF117836E4EF
:1004F200F608EFF6803D782AE664AA702B90FFE6B4
:10050200E0F511FFC37837E69FF618E69400F6ADE2
:1005120011120B2F120AAC7837E61846701590FFAD
:10052200F6F0782A76A5800B782A76A590FFE1E08E
:0B05320044C0F090FFE4E04410F02211
:10078A0078367600087602E4782CF618E6540314D4
:10079A006041146013240270337828E66005782BD0
:1007AA00760222E4782BF622782FE6540F90FFF196
:1007BA00F090FFE1E020E704E030E606782B7601CE
:1007CA008004E4782BF690FFF1E4F02290FFE1E058
:0407DA0044C0F02205
:10082800782BE65403146040146011240270327867
:100838002DE6B40105E47828F6228025782DE670A7
:100848001E782FE6540F90FFF1F090FFE1E0543F3F
:10085800F0A37408F090FFF2F090FFF1E4F022802A
:090868000090FFE1E044C0F02221
:1008FD00782BE654031460381460112402702A78A2
:10090D002DE6B401057828760122801D782DE6703C
:10091D0016782FE6540F90FFF1F090FFE1E044C000
:10092D00F090FFF1E4F022800090FFE1E044C0F090
:01093D002297
:10017100E4F5117832E6FF7836E4F608EFF67937E0
:10018100E7F8E4F7E819F77831E6783726F618E466
:1001910036F6782EE624FE602014603A24026003CD
:1001A1000202497BFF7A0679437833C6EBC608C65B
:1001B100EAC608C6E9C60202427BFF7A0879BA7824
:1001C10033C6EBC608C6EAC608C6E9C690000212E5
:1001D1000343F5128079782DE61460161460261415
:1001E100603824037049783376FF0876060876551F
:1001F1008044900651E4936036783376FF087606A2
:100201000876598031900652E493600C783376FF7A
:10021100087606087689801E8015900653E493605F
:100221000C783376FF0876060876A3800980009063
:10023100FFE1E044C0F07833CBE6CB08E6FA08E60C
:10024100F912032AF512800790FFE1E044C0F0D3D0
:100251007837E6951218E695114005A61108A61201
:01026100227A
:10087100782DE67838F6602B7F0190FFF1EFF0904C
:10088100FFE17405F090FFE47480F090FFF4F090C4
:10089100FFE27408F090FFF2F00FBF06DD782976D1
:1008A1000180107F0190FFF1EFF090FFE1E4F00F84
:0908B100BF06F290FFF1E4F02211
:100B9E00782FE6146003047010782DE6D39400408D
:100BAE0002800690FFF6E4F02290FFE1E044C0F0F0
:010BBE002214
:100BDD0078367600087601782FE6146003047005E8
:0D0BED00E4782BF62290FFE1E044C0F022F6
:1005C900782AE6645A701BD37837E6940818E694BB
:1005D90000400575110880057837E6F511120A4DB6
:1005E9008027782AE664AA703CD37837E6940818FD
:1005F900E69400400575110880057837E6F511E5A0
:10060900116006120ADB120A4D90FFF6E511F0FFA0
:100619007E00C37837E69FF618E69EF618EF26F6B1
:1006290018EE36F62290FFE1E044C0F0782AE6B4ED
:0A06390055077838E690FFD8F0224C
:1003F100782CE6B40D00400302049A900403F82817
:10040100287302042A02043302049A02043C0204FF
:100411009A02044502045102049A02045A02046D2C
:1004210002048102047A02048B782A765A12078A1E
:100431008055782A76A51208288038782A76A51260
:1004410008FD802F782A7655782DE67838F68023B6
:10045100782A765A120171802E782A765A7838E6EF
:10046100782BF678367600087601801B782A76A5F7
:1004710012087190FFF6E4F022782A76A5020B9E0D
:10048100782A765A120BDD0205C9782A76A590FFE3
:10049100F6E4F07836F608F62290FFE1E044C0F089
:0104A1002238
:10071F00782CE624DF602E146039146049240370AE
:10072F0052782A76AA7832E6FF7836E4F608EFF6A2
:10073F007937E7F8E4F7E819F77831E6783726F6EE
:10074F0018E436F622782A76AA78367600087607E5
:10075F000205C9782A76A5120C5490FFF6E4F0E54D
:10076F00264408F52622782A76A5120C3690FFF635
:0B077F00E4F02290FFE1E044C0F02213
:1009E9007833760008760008762B1204A2782AE676
:1009F900B4F020E47836F608F6782BE6546024E063
:100A09006007242070060203F102071F90FFE1E04E
:040A190044C0F022C3
:060BFA0090FFF1F07F10F6
:100C000090FFF4E0FECE540FCEEFCE4ECEEEF022AB
:100C260090FFE4E0FECE540FCEEFCE4ECEEEF02295
:10007E0090FFC9E0F510540F6056E51030E01953AB
:10008E0010F0E5104401F0E0F510540F600302018A
:10009E0070E5264401F52622E5BF30E1FB7F011213
:1000AE000C46E51030E2155310F0E510440490FFB5
:1000BE00C9F0120026E5264402F52622E51020E1BD
:1000CE00030201705310F0E510440290FFC9F022B4
:1000DE0090FFDBE0F51030E2117404F07401120BA6
:1000EE00FA783AE66045E4F68041E51030E4149083
:1000FE00FFDB7410F07402120BFA7839E6602CE410
:10010E00F68028E51030E11090FFDB7402F090FFCE
:10011E00F1E4F01209E98013E51030E00E90FFDBF8
:10012E007401F090FFF1E4F01205C990FFDDE0F5E7
:10013E001030E12E7402F090FFF104F090FFE6E033
:10014E00FFE4F527E527C39F501690FFE3E0FE740A
:10015E00002527F582E43402F583EEF0052780E4CE
:03016E00D200229A
:1006B1008F1A7829E66066E4F51CE51A605FC39439
:1006C1003F5005851A1D8003751D3FC3E51A951D11
:1006D100F51A7839E670FB53AD7F90FFF1E0F51B19
:1006E1007402F0E4F51EE51EC3951D5015E51C25A9
:1006F1001EF582E433F58312034390FFF3F0051EE8
:1007010080E4E51E251CF51C7839760190FFF6E59D
:0E0711001EF090FFF1E51BF043AD80809D22AD
:100003007829E6601A53AD7F90FFF1E0FDC20074DA
:1000130003F07F10120C2690FFF1EDF043AD802228
:10093E007829E66039783AE670FB53AD7F90FFF187
:10094E00E0FE7401F090FFF374A1F07420F0E4F077
:10095E00F0F0F07402F0E4F0EFF0E4F090FFF674D3
:0F096E000AF0783A760190FFF1EEF043AD802267
:100C1000783B76010812039E00002580E47840F6B8
:060C200008F60876082228
:100AAC00782BE6783FF6782CE6783EF6782DE678CB
:100ABC003DF6782EE6783CF6782FE67840F67830DE
:0F0ACC00E67841F67831E67842F6783B760122FB
:100ADB00783FE6782BF6783EE6782CF6783DE6788C
:100AEB002DF6783CE6782EF67840E6782FF67841AE
:0B0AFB00E67830F67842E67831F6220B
:0A0C5400782DE67844F618760122A8
:100C3600782DE67847F6782EE67846F6187601227D
:0300000002053DB9
:0C053D00787FE4F6D8FD75814802058443
:10032A00BB010689828A83E0225002E722BBFE02D1
:09033A00E32289828A83E4932204
:10034300BB010CE58229F582E5833AF583E022506F
:1003530006E92582F8E622BBFE06E92582F8E222B9
:0D036300E58229F582E5833AF583E49322D3
:10037000F8BB010DE58229F582E5833AF583E8F0C3
:10038000225006E92582C8F622BBFE05E92582C86F
:02039000F22257
:0C039200E6FC08E6FD08E6FE08E6FF2297
:10039E00D083D082E493F608740193F60874029326
:0903AE00F608740393F67404735D
:1003B700D083D082E4937012740193700DA3A3933A
:1003C700F8740193F5828883E4737402936C701256
:1003D7007403936D700C7404936E70067405936FB9
:0A03E70060DDA3A3A3A3A3A380CAB3
:10054900020B7CE493A3F8E493A34003F68001F241
:1005590008DFF48029E493A3F85407240CC8C333B3
:10056900C4540F4420C8834004F456800146F6DF82
:10057900E4800B0102040810204080900C5EE47EA8
:10058900019360BCA3FF543F30E509541FFEE49377
:10059900A360010ECF54C025E060A840B8E493A33E
:1005A900FAE493A3F8E493A3C8C582C8CAC583CA69
:1005B900F0A3C8C582C8CAC583CADFE9DEE780BE21
:010C6600008D
:00000001FF
