:1000B900F7D2F6D1F518F7D2F6D1F518F7D2F7D26B
:1000C900F6D1F7D2F7D2F6D1F518F7D2F6D1F5185D
:1000D900F3C2F3C2F243F3C2F518F518F6D1F7D219
:1000E900F91EF7D2F6D1F518F518F6D1F243F5183D
:1000F900F518F518F518F518EFA3EFA3EDA2EFA37E
:100109000804040804040404081008040408040486
:10011900040408100804040404040404080410086E
:08012900080804040408041096
:040195008E088F0938
:10019900E5091509AE0870021508FFEF4E601975DB
:1001A9000A03750BB6E50B150BAE0A7002150AFFAB
:0801B900EF4E60DC80EF80D8FE
:0101C100221B
:10000E00758901D2AFD2A9750C00C3E50C6480943A
:10001E00A850F4AF0CEF3395E0FEEF25E0FFEE3382
:10002E00FE74B92FF58274003EF583E493FE7401DD
:10003E0093FFEF4E7004C28C8048AF0CEF3395E007
:10004E00FEEF25E0FFEE33FE74B92FF58274003E0D
:10005E00F583E493FE740193FF8F8AAF0CEF339513
:10006E00E0FEEF25E0FFEE33FE74B92FF58274004B
:10007E003EF583E493FE740193FFEEFF7E008F8CBA
:10008E00D28CAF0CEF3395E0FE74092FF58274011C
:10009E003EF583E493FF7E32EF8EF0A4FFAEF012B6
:0B00AE000195050C020018020015224D
:03000B00020131BE
:10013100C0E0C083C082C0D075D000C006C007AF88
:100141000CEF3395E0FEEF25E0FFEE33FE74B92F9F
:10015100F58274003EF583E493FE740193FF8F8A68
:10016100AF0CEF3395E0FEEF25E0FFEE33FE74B9FF
:100171002FF58274003EF583E493FE740193FFEE44
:10018100FF7E008F8CB290D007D006D0D0D082D025
:0401910083D0E03205
:030000000201C238
:0C01C200787FE4F6D8FD75810C02000E79
:00000001FF
