:0B09DA00B2C6AC75ACECA7DE0A0D0045
:0409A1008E088F0924
:1009A500E5091509AE0870021508FFEF4E601975C7
:1009B5000A03750BB6E50B150BAE0A7002150AFF97
:0809C500EF4E60DC80EF80D8EA
:0109CD002207
:1008E7007F807E251209707BFF7A0979DA8B0C8A63
:1008F7000D890EAB0CAA0DA90E120800FFEF601BA5
:10090700AB0C050EE50EAA0D7002050D14F91208C1
:1009170000FF8F993099FDC29980D87F647E0012BD
:0409270009A180C3DF
:01092B0022A9
:100970008E0F8F107593007594FF759850758920B0
:10098000AE0FAF10AB07AA06E4F9F87F007EE17D59
:10099000007C0012092CEFF404FF8F8B8F8DD28E18
:0109A0002234
:030000000209CE24
:0C09CE00787FE4F6D8FD7581100208E780
:10080000BB010689828A83E0225002E722BBFE02F6
:09081000E32289828A83E4932229
:10092C00C2D5E830E70FB2D5E4C39BFBE49AFAE4F6
:10093C0099F9E498F8EC30E717B2D512096212086D
:10094C0055E4C39BFBE49AFAE499F9E498F8800324
:10095C0012085530D50DE4C39FFFE49EFEE49DFDC7
:04096C00E49CFC22E9
:1008190075F008758200EF2FFFEE33FECD33CDCC96
:1008290033CCC58233C5829BED9AEC99E582984019
:100839000CF582EE9BFEED9AFDEC99FC0FD5F0D6F6
:10084900E4CEFBE4CDFAE4CCF9A88222B800C1B920
:100859000059BA002DEC8BF084CFCECDFCE5F0CB5E
:10086900F97818EF2FFFEE33FEED33FDEC33FCEB97
:1008790033FB10D703994004EB99FB0FD8E5E4F952
:10088900FA227818EF2FFFEE33FEED33FDEC33FC3F
:10089900C933C910D7059BE99A4007EC9BFCE99A33
:1008A900F90FD8E0E4C9FAE4CCFB2275F010EF2F78
:1008B900FFEE33FEED33FDCC33CCC833C810D70778
:1008C9009BEC9AE899400AED9BFDEC9AFCE899F8B3
:0E08D9000FD5F0DAE4CDFBE4CCFAE4C8F92246
:00000001FF
