:070AAD00434F554E543D007C
:030AB40001080036
:080A3900C2E9D2EA7F017E0050
:100A4100EF1FAA0670011E4A60107C037DB6ED1DE2
:0A0A5100AA0470011C4A60E880F45A
:010A5B002278
:1009B100120A7E7F80120AA3E4F509AF09EF33958D
:1009C100E0FE74AD2FF582740A3EF583E493FF12C5
:1009D1000A970509C3E5096480948640DE7F0F12FA
:1009E1000AA37F86120AA37F807E25120A5CD2AFFA
:0409F100D2AC80FE06
:0300230002095A75
:10095A00C0E0C0F0C083C082C0D075D000C000C063
:10096A0001C002C003C004C005C006C007C298AFD8
:10097A0099120A97E508B403057F86120AA30508A7
:10098A00D3E508648094834003750800D007D00635
:10099A00D005D004D003D002D001D000D0D0D0826C
:0709AA00D083D0F0D0E03251
:100A5C00E4F5937594FF759850758920AB07AA0639
:100A6C00F9F8FF7EE1FDFC1209F5EFF404F58DD2E7
:020A7C008E22C8
:0C0A97008F80C287D2E8120A39C2EA221E
:0A0AA3008F80C2E8120A39C2EA226D
:100A7E007F38120AA37F0C120AA37F06120AA37FE5
:090A8E0001120AA37F02020AA36F
:030000000208CE25
:0C08CE00787FE4F6D8FD75810902091559
:1009F500C2D5E830E70FB2D5E4C39BFBE49AFAE42D
:100A050099F9E498F8EC30E717B2D5120A2B1208D9
:100A15003CE4C39BFBE49AFAE499F9E498F8800373
:100A250012083C30D50DE4C39FFFE49EFEE49DFD16
:040A3500E49CFC221F
:1008DA000209B1E493A3F8E493A34003F68001F27A
:1008EA0008DFF48029E493A3F85407240CC8C3331F
:1008FA00C4540F4420C8834004F456800146F6DFEE
:10090A00E4800B0102040810204080900AB4E47EBF
:10091A00019360BCA3FF543F30E509541FFEE493E2
:10092A00A360010ECF54C025E060A840B8E493A3A9
:10093A00FAE493A3F8E493A3C8C582C8CAC583CAD4
:10094A00F0A3C8C582C8CAC583CADFE9DEE780BE8C
:010AB700003E
:1008000075F008758200EF2FFFEE33FECD33CDCCAF
:1008100033CCC58233C5829BED9AEC99E582984032
:100820000CF582EE9BFEED9AFDEC99FC0FD5F0D60F
:10083000E4CEFBE4CDFAE4CCF9A88222B800C1B939
:100840000059BA002DEC8BF084CFCECDFCE5F0CB77
:10085000F97818EF2FFFEE33FEED33FDEC33FCEBB0
:1008600033FB10D703994004EB99FB0FD8E5E4F96B
:10087000FA227818EF2FFFEE33FEED33FDEC33FC58
:10088000C933C910D7059BE99A4007EC9BFCE99A4C
:10089000F90FD8E0E4C9FAE4CCFB2275F010EF2F91
:1008A000FFEE33FEED33FDCC33CCC833C810D70791
:1008B0009BEC9AE899400AED9BFDEC9AFCE899F8CC
:0E08C0000FD5F0DAE4CDFBE4CCFAE4C8F9225F
:00000001FF
