:1000000075207FE520F4F58030000C1166E52003B3
:10001000F520F4F58080F111663007ECE52023F53A
:1000200020F4F58080F1C0E0E9C0E0792CD9FED061
:10003000E0F9D0E022C0E0E9C0E079FFD9FE79EC38
:10004000D9FED0E0F9D0E022C0E0E8C0E0E9C0E0AD
:10005000781379FFD9FED8FA7971D9FE00D0E0F98A
:10006000D0E0F8D0E022C0E0E8C0E0E9C0E078C22B
:1000700079FFD9FED8FAD0E0F9D0E0F8D0E022C07C
:10008000E0EAC0E07A0A120066DAFBD0E0FAD0E0DB
:1000900022C0E0EAC0E07A64120066DAFBD0E0FA3F
:1000A000D0E022C0E0EBC0E07B0A120091DBFBD085
:1000B000E0FAD0E022C0E0E9C0E0EF792CD9FED52B
:0800C000E0F9D0E0F9D0E022E4
