:10080000F5B0F6D1F7D2F7D2F91EF7D2F6D1F91E2C
:10081000F6D1F5B0F3C2F7D2F5B0F518F5B0F5188A
:10082000F3C2F518F5B0F6D1F243F5B0F6D1F7D230
:10083000F16DF16DF7D2F6D1F5B0F6D1F5B0F6D194
:10084000F5B0F6D1F7D2F5B0E485F7D2F6D1E4856C
:10085000F6D1F5B0F3C2F3C2F518F5B0F243F243A6
:10086000F3C2F518F5B0F6D1F243F5B0F6D1F7D2F0
:10087000F16DF16DF7D2F6D1F5B0F5B008080C0CBA
:100880000C0C0C0C0C0C0C0C0C0C0C0C08080808B8
:1008900008080808080808080808080808080808D8
:1008A00008080808080808080808080808080808C8
:0A08B00008080808080808080808EE
:060A6800010C00010E323A
:040A3B008E088F0989
:100A3F00E5091509AE0870021508FFEF4E6019752C
:100A4F000A03750BB6E50B150BAE0A7002150AFFFC
:080A5F00EF4E60DC80EF80D84F
:010A6700226C
:1008BA00758901D2AFD2A9750C00E50CC3943E50DC
:1008CA00F6AF0D050DEFF4F58020B20C050EE50E1E
:1008DA00D394FA4003750EFA20B30C150EE50EC335
:1008EA0094055003750E05AF0CEF25E02400F58240
:1008FA00E43408F583E493FE740193FFEF4E700429
:10090A00C28C8034AF0CEF25E02400F582E4340871
:10091A00F583E493FE740193FF8F8AAF0CEF25E011
:10092A002400F582E43408F583E493FE740193FF0E
:10093A00EEFF7E008F8CD28CAF0CEF90087C93FF79
:10094A00AE0EEF8EF0A4FFAEF0120A3B050C0208C1
:05095A00C40208C122E7
:03000B000209EBFC
:1009EB00C0E0C083C082C0D075D000C006C007AFC6
:1009FB000CEF25E02400F582E43408F583E493FE44
:100A0B00740193FF8F8AAF0CEF25E02400F582E48D
:100A1B003408F583E493FE740193FFEEFF7E008FA1
:100A2B008CB290D007D006D0D0D082D083D0E03219
:0300000002095F93
:0C095F00787FE4F6D8FD75810E0209A631
:10096B000208BAE493A3F8E493A34003F68001F2E0
:10097B0008DFF48029E493A3F85407240CC8C3338D
:10098B00C4540F4420C8834004F456800146F6DF5C
:10099B00E4800B0102040810204080900A68E47E7A
:1009AB00019360BCA3FF543F30E509541FFEE49351
:1009BB00A360010ECF54C025E060A840B8E493A318
:1009CB00FAE493A3F8E493A3C8C582C8CAC583CA43
:1009DB00F0A3C8C582C8CAC583CADFE9DEE780BEFB
:010A6E000087
:00000001FF
