:1008A200FFFF8BFBFB8BFFFFFFFD8BFBFB8BFDFF3A
:1008B200FFFF8BFBFB8BFFFFFFFB8DFDFD8DFBFF26
:040875008E088F0951
:10087900E5091509AE0870021508FFEF4E601975F4
:100889000A03750BB6E50B150BAE0A7002150AFFC4
:08089900EF4E60DC80EF80D817
:0108A1002234
:10080000750E007593007594FF75E87F750E00E511
:100810000EC3942050F6750D00E50DC394C8504AE0
:10082000850E0CAF0E7E00EF2408FFEE3400FEAD07
:100830000C7C00C3ED9FEE6480F8EC648098502639
:10084000AF0CEF9008A293FF8F807F017E0012080B
:10085000757580FFAFE87801EF08800103D8FDFFD0
:100860008FE8050C80BD050D80AF7408250EF50ED0
:04087000809D80984F
:010874002261
:030000000208C231
:0C08C200787FE4F6D8FD75810E02080076
:00000001FF
