:0A08F60008080901030206040C08BB
:0408C9008E108F11ED
:1008CD00E5111511AE1070021510FFEF4E60197580
:1008DD00120075130AE5131513AE1270021512FFEF
:0808ED00EF4E60DC80EF80D8C3
:0108F50022E0
:10088C007591007592F0759000751400C3E51464B1
:10089C0080948850F4AF1474082FF8E6FFEFF4F549
:1008AC0080AF1474082FF8E6FFEFC454F0F5907F76
:0C08BC00647E001208C9051480D280CDB3
:0108C800220D
:03000000020800F3
:0C080000787FE4F6D8FD758114020847EB
:10080C0002088CE493A3F8E493A34003F68001F26E
:10081C0008DFF48029E493A3F85407240CC8C333ED
:10082C00C4540F4420C8834004F456800146F6DFBC
:10083C00E4800B01020408102040809008F6E47E4E
:10084C00019360BCA3FF543F30E509541FFEE493B1
:10085C00A360010ECF54C025E060A840B8E493A378
:10086C00FAE493A3F8E493A3C8C582C8CAC583CAA3
:10087C00F0A3C8C582C8CAC583CADFE9DEE780BE5B
:0109000000F6
:00000001FF
