:04084A008E108F116C
:10084E00E5111511AE1070021510FFEF4E601975FF
:10085E00120075130AE5131513AE1270021512FF6E
:08086E00EF4E60DC80EF80D842
:01087600225F
:100877007517007593007594FFD2AFD2A8C288AFE1
:10088700170517EFF4F5807FF47E0112084A80EF11
:01089700223E
:03000300020800F0
:07080000C0E0C0D075D00874
:10080700751405AF141514EF60347590007515C392
:10081700751650E5161516AE1570021515FFEF4E35
:1008270070F17590FF7515C3751650E5161516AE60
:0E0837001570021515FFEF4E60C980EF80C5E9
:05084500D0D0D0E0322C
:030000000208985B
:0C089800787FE4F6D8FD75811702087720
:00000001FF
