:100A0500010204081020408040201008040201FF64
:100A1500010204081020408040201008040201FF54
:100A2500010204081020408040201008040201FF44
:100A3500010204081020408040201008040201FF34
:100A4500010204081020408040201008040201FF24
:100A5500010204081020408040201008040201FF14
:100A6500010204081020408040201008040201FF04
:100A7500010204081020408040201008040201FFF4
:100A8500010204081020408040201008040201FFE4
:100A9500010204081020408040201008040201FFD4
:100AA500010204081020408040201008040201FFC4
:100AB500010204081020408040201008040201FFB4
:100AC500010204081020408040201008040201FFA4
:100AD500010204081020408040201008040201FF94
:100AE500010204081020408040201008040201FF84
:100AF500010204081020408040201008040201FF74
:100800006200000000000000000000000000000086
:1008100000000000000000000000000000000000D8
:1008200000000000000000000000000000000000C8
:1008300000000000000000000000000000000000B8
:1008400000000000000000000000000000000000A8
:100850000000000000000000000000000000000098
:100860000000000000000000000000000000000088
:100870000000000000000000000000000000000078
:100880000000000000000000000000000000000068
:100890000000000000000000000000000000000058
:1008A0000000000000000000000000000000000048
:1008B0000000000000000000000000000000000038
:1008C0000000000000000000000000000000000028
:1008D0000000000000000000000000000000000018
:1008E0000000000000000000000000000000000008
:1008F00000000000000000000000000000000000F8
:1009000000000000000000000000000000000000E7
:1009100000000000000000000000000000000000D7
:1009200000000000000000000000000000000000C7
:1009300000000000000000000000000000000000B7
:1009400000000000000000000000000000000000A7
:100950000000000000000000000000000000000097
:100960000000000000000000000000000000000087
:100970000000000000000000000000000000000077
:100980000000000000000000000000000000000067
:100990000000000000000000000000000000000057
:1009A0000000000000000000000000000000000047
:1009B0000000000000000000000000000000000037
:1009C0000000000000000000000000000000000027
:1009D0000000000000000000000000000000000017
:1009E0000000000000000000000000000000000007
:1009F00000000000000000000000000000000000F7
:040A000000000000F2
:040F18008E248F256F
:100F1C00E5251525AE2470021524FFEF4E601975DA
:100F2C0026037527B6E5271527AE2670021526FF72
:080F3C00EF4E60DC80EF80D86D
:010F4400228A
:100B05007593007594FF120F45752800752900C36C
:100B1500E52864809481502BAE28AF2974052FF504
:100B250082740A3EF583E493FFAC28AD2974002D49
:100B3500F58274003CF583EFF00529E5297002057F
:100B45002880CC7B017A0079007F017E00120C554C
:100B5500752800752900C3E52864809481501BAE73
:100B650028AF2974002FF58274003EF58374FFF0D9
:100B75000529E5297002052880DC7B017A007900CA
:100B85007F017E00120BC3752800752900C3E52877
:100B95006480948150F1AE28AF2974002FF58274DA
:100BA500003EF583E0FFEFF4F5807F647E00120FD1
:0D0BB500180529E5297002052880D280CAA4
:010BC2002210
:100E0100EF4440F51D752303AF1BAE1AAD19AC18A5
:100E1100E52375F008A4F9F8120D35C37404952380
:100E2100241DF8A6071523C3E5236480948050D8B8
:100E3100851C22E4F523741D2523F8E6FF120FA17A
:0B0E41000523C3E5236480948640EB8A
:010E4C002283
:080E96007F007E027D007C005C
:100E9E008F158E148D138C12C2948F1B8E1A8D1972
:100EAE008C18751CFF7F50120E01120F85EF601A01
:100EBE00120F4585151B85141A8513198512187581
:100ECE001CFF7F50120E01120F85120F9D7F002204
:040F9D00D2947FFF6C
:0D0FA1008F86E584B480FB758480AF8622C6
:100E4D00751601C294E4F51BF51AF519F518751C04
:100E5D00957F40120E01120F85EF640160037F0430
:100E6D0022E516B4011D120F9DC294E4F51BF51A6F
:100E7D00F519F518751CFF7F41120E01120F858FA4
:080E8D001680DE120F9D7F00AC
:010E9500223A
:100F45007585D075E401E5E654F064F060037F042F
:100F550022D294E4FE7FFF120FA10EBE0AF7120EF5
:010F65004D3E
:010F66002268
:100F8500E4FD7FFF120FA1AE07EE6009EE6401607C
:070F9500040DBD41EDAF06A4
:010F9C002232
:020F6700AD07D4
:100F6900E4FBFA7FFF120FA1AE07EE6D600B0BBB1E
:0B0F790000010ABA03EDBBE9EAAF0675
:010F8400224A
:100EDE00E4FD7FFF120FA1AE0753061FEE24F5604F
:100EEE000C24FE600B2408700AE4F980087F10229F
:100EFE007F11227912E960040DBD41D6E4FD7FFF1A
:090F0E00120FA1AE070DEE60F513
:010F170022B7
:060BC3008B088A09890A73
:100BC900E4F50BF50C750D027C02FD120D488F1131
:100BD9008E108D0F8C0E120E96EF7067C2948511D0
:100BE9001B85101A850F19850E18751CFF7F511268
:100BF9000E01120F85EF70467FFE120F67EF64FE3C
:100C09007037F50BF50C7FFF120FA1AB08AA09A9E4
:100C19000A850C82850B83EF120D13050CE50C7008
:100C290002050BC3E50B940240DC7FFF120FA17F85
:100C3900FF120FA1E4F50D800D750D038008750DE8
:0B0C4900028003750D01120F9DAF0D1E
:010C5400227D
:060C55008B088A09890AE0
:100C5B00E4F50BF50C750D027C02FD120D488F119E
:100C6B008E108D0F8C0E120E96EF7066C29485113E
:100C7B001B85101A850F19850E18751CFF7F5812CE
:100C8B000E01E4FF120F67EF70437FFF120FA17F7E
:100C9B00FE120FA1E4F50BF50CAB08AA09A90A8506
:100CAB000C82850B83120CE6FF120FA1050CE50CD1
:100CBB007002050BC3E50B940240DE7FFF120FA100
:100CCB007FFF120FA1120EDEE4F50D8008750D02E9
:0A0CDB008003750D01120F9DAF0D8F
:010CE50022EC
:03000000020D7579
:0C0D7500787FE4F6D8FD758129020DBCE2
:100CE600BB010CE58229F582E5833AF583E02250C3
:100CF60006E92582F8E622BBFE06E92582F8E2220D
:0D0D0600E58229F582E5833AF583E4932226
:100D1300F8BB010DE58229F582E5833AF583E8F016
:100D2300225006E92582C8F622BBFE05E92582C8C2
:020D3300F222AA
:100D3500E8600FECC313FCED13FDEE13FEEF13FF9C
:030D4500D8F122C0
:100D4800EC8EF0A4CCC5F0CCCDF8EFA4CEC5F02D38
:100D5800FDE43CFCE8A42EC8C5F03DFDE43CFCEFF6
:0D0D6800A4FFE5F028FEE43DFDE43CFC2284
:100D8100020B05E493A3F8E493A34003F68001F278
:100D910008DFF48029E493A3F85407240CC8C33373
:100DA100C4540F4420C8834004F456800146F6DF42
:100DB100E4800B0102040810204080900800E47ECA
:100DC100019360BCA3FF543F30E509541FFEE49337
:100DD100A360010ECF54C025E060A840B8E493A3FE
:100DE100FAE493A3F8E493A3C8C582C8CAC583CA29
:100DF100F0A3C8C582C8CAC583CADFE9DEE780BEE1
:010A040000F1
:00000001FF
