:100A0500010204081020408040201008040201FF64
:100A1500010204081020408040201008040201FF54
:100A2500010204081020408040201008040201FF44
:100A3500010204081020408040201008040201FF34
:100A4500010204081020408040201008040201FF24
:100A5500010204081020408040201008040201FF14
:100A6500010204081020408040201008040201FF04
:100A7500010204081020408040201008040201FFF4
:100A8500010204081020408040201008040201FFE4
:100A9500010204081020408040201008040201FFD4
:100AA500010204081020408040201008040201FFC4
:100AB500010204081020408040201008040201FFB4
:100AC500010204081020408040201008040201FFA4
:100AD500010204081020408040201008040201FF94
:100AE500010204081020408040201008040201FF84
:100AF500010204081020408040201008040201FF74
:100800006200000000000000000000000000000086
:1008100000000000000000000000000000000000D8
:1008200000000000000000000000000000000000C8
:1008300000000000000000000000000000000000B8
:1008400000000000000000000000000000000000A8
:100850000000000000000000000000000000000098
:100860000000000000000000000000000000000088
:100870000000000000000000000000000000000078
:100880000000000000000000000000000000000068
:100890000000000000000000000000000000000058
:1008A0000000000000000000000000000000000048
:1008B0000000000000000000000000000000000038
:1008C0000000000000000000000000000000000028
:1008D0000000000000000000000000000000000018
:1008E0000000000000000000000000000000000008
:1008F00000000000000000000000000000000000F8
:1009000000000000000000000000000000000000E7
:1009100000000000000000000000000000000000D7
:1009200000000000000000000000000000000000C7
:1009300000000000000000000000000000000000B7
:1009400000000000000000000000000000000000A7
:100950000000000000000000000000000000000097
:100960000000000000000000000000000000000087
:100970000000000000000000000000000000000077
:100980000000000000000000000000000000000067
:100990000000000000000000000000000000000057
:1009A0000000000000000000000000000000000047
:1009B0000000000000000000000000000000000037
:1009C0000000000000000000000000000000000027
:1009D0000000000000000000000000000000000017
:1009E0000000000000000000000000000000000007
:1009F00000000000000000000000000000000000F7
:040A000000000000F2
:100EDF00EF1FAA0670011E4A60107C037DB6ED1D40
:0A0EEF00AA0470011C4A60E880F4B8
:010EF90022D6
:100E2000E4F5937594FF120E9F7B017A0079007FA1
:100E3000017E00120B05E4F508F50974002509F59B
:100E40008274003508F583E0F4F5807F647E00123B
:100E50000EDF0509E50970020508C3E50864809402
:050E60008140D880D1A3
:100D4300EF4440F51F752503AF1DAE1CAD1BAC1A58
:100D5300E52575F008A4F9F8120C77C374049525FA
:100D6300241FF8A6071525C3E5256480948050D871
:100D7300851E24E4F525741F2525F8E6FF120F16BA
:0B0D83000525C3E5256480948640EB45
:010D8E002242
:080DD8007F007E027D007C001B
:100DE0008F178E168D158C14C2948F1D8E1C8D1B23
:100DF0008C1A751EFF7F50120D43120EFAEF601A07
:100E0000120E9F85171D85161C85151B85141A75D6
:100E10001EFF7F50120D43120EFA120F127F002296
:040F1200D2947FFFF7
:0D0F16008F86E584B480FB758480AF862251
:100D8F00751801C294E4F51DF51CF51BF51A751EB7
:100D9F00957F40120D43120EFAEF640160037F043A
:100DAF0022E518B4011D120F12C294E4F51DF51CB3
:100DBF00F51BF51A751EFF7F41120D43120EFA8FA8
:080DCF001880DE120F127F00F4
:010DD70022F9
:100E9F007585D075E401E5E654F064F060037F04D6
:100EAF0022D294E4FE7FFF120F160EBE0AF7120D28
:010EBF008FA3
:010EC000220F
:100EFA00E4FD7FFF120F16AE07EE6009EE64016093
:070F0A00040DBD41EDAF062F
:010F110022BD
:020EC100AD077B
:100EC300E4FBFA7FFF120F16AE07EE6D600B0BBB50
:0B0ED30000010ABA03EDBBE9EAAF061C
:010EDE0022F1
:100E6500E4FD7FFF120F16AE0753061FEE24F56053
:100E75000C24FE600B2408700AE4F980087F102218
:100E85007F11227912E960040DBD41D6E4FD7FFF93
:090E9500120F16AE070DEE60F518
:010E9E002231
:060B05008B0A8A0B890C2B
:100B0B00E4F50DF50E750F027C02FD120C8A8F13A6
:100B1B008E128D118C10120DD8EF7067C294851345
:100B2B001D85121C85111B85101A751EFF7F511216
:100B3B000D43120EFAEF70467FFE120EC1EF64FEEC
:100B4B007037F50DF50E7FFF120F16AB0AAA0BA926
:100B5B000C850E82850D83EF120C55050EE50E707C
:100B6B0002050DC3E50D940240DC7FFF120F167FCB
:100B7B00FF120F16E4F50F800D750F038008750F2C
:0B0B8B00028003750F01120F12AF0F64
:010B9600223C
:060B97008B268A27892845
:100B9D00E4F529F52A752B027C02FD120C8A8F2FA4
:100BAD008E2E8D2D8C2C120DD8EF7066C294852F44
:100BBD001D852E1C852D1B852C1A751EFF7F581229
:100BCD000D43E4FF120EC1EF70437FFF120F167F2E
:100BDD00FE120F16E4F529F52AAB26AA27A92885BA
:100BED002A82852983120C28FF120F16052AE52A61
:100BFD0070020529C3E529940240DE7FFF120F160E
:100C0D007FFF120F16120E65E4F52B8008752B026F
:0A0C1D008003752B01120F12AF2B9C
:010C270022AA
:03000000020CB738
:0C0CB700787FE4F6D8FD75812F020CFE5A
:100C2800BB010CE58229F582E5833AF583E0225081
:100C380006E92582F8E622BBFE06E92582F8E222CB
:0D0C4800E58229F582E5833AF583E49322E5
:100C5500F8BB010DE58229F582E5833AF583E8F0D5
:100C6500225006E92582C8F622BBFE05E92582C881
:020C7500F22269
:100C7700E8600FECC313FCED13FDEE13FEEF13FF5B
:030C8700D8F1227F
:100C8A00EC8EF0A4CCC5F0CCCDF8EFA4CEC5F02DF7
:100C9A00FDE43CFCE8A42EC8C5F03DFDE43CFCEFB5
:0D0CAA00A4FFE5F028FEE43DFDE43CFC2243
:100CC300020E20E493A3F8E493A34003F68001F219
:100CD30008DFF48029E493A3F85407240CC8C33332
:100CE300C4540F4420C8834004F456800146F6DF01
:100CF300E4800B0102040810204080900800E47E89
:100D0300019360BCA3FF543F30E509541FFEE493F5
:100D1300A360010ECF54C025E060A840B8E493A3BC
:100D2300FAE493A3F8E493A3C8C582C8CAC583CAE7
:100D3300F0A3C8C582C8CAC583CADFE9DEE780BE9F
:010A040000F1
:00000001FF
