:10000000752000E520F4F580752155E521F4F59083
:10001000752201E522F4F5A0752301E523F4F5B07E
:100020000520E520F4F580E521B455057521AA01E8
:1000300034752155E521F4F590E52223F522F4F5F8
:10004000A0E52303F523F4F5B0118D80D3C0E0E9DA
:10005000C0E0792CD9FED0E0F9D0E022C0E0E9C0C0
:10006000E079FFD9FE79ECD9FED0E0F9D0E022C0EA
:10007000E0E8C0E0E9C0E0781379FFD9FED8FA796A
:1000800071D9FE00D0E0F9D0E0F8D0E022C0E0E87D
:10009000C0E0E9C0E078C279FFD9FED8FAD0E0F933
:1000A000D0E0F8D0E022C0E0EAC0E07A0A12008D89
:1000B000DAFBD0E0FAD0E022C0E0EAC0E07A6412D5
:1000C000008DDAFBD0E0FAD0E022C0E0EBC0E07BAC
:1000D0000A1200B8DBFBD0E0FAD0E022C0E0E9C0B1
:0F00E000E0EF792CD9FED5E0F9D0E0F9D0E0229D
:00000001FF
