:10080000A0D005000102030405060708090A0B0C25
:100810000D0E0F101112131415161718191A1B1C90
:100820001D1E1F202122232425262728292A2B2C80
:100830002D2E2F303132333435363738393A3B3C70
:100840003D3E3F404142434445464748494A4B4C60
:100850004D4E4F505152535455565758595A5B5C50
:100860005D5E5F606162636465666768696A6B6C40
:100870006D6E6F707172737475767778797A7B7C30
:100880007D7E7F808182838485868788898A8B8C20
:100890008D8E8F909192939495969798999A9B9C10
:1008A0009D9E9FA0A1A2A3A4A5A6A7A8A9AAABAC00
:1008B000ADAEAFB0B1B2B3B4B5B6B7B8B9BABBBCF0
:1008C000BDBEBFC0C1C2C3C4C5C6C7C8C9CACBCCE0
:0308D000CDCECFBB
:070960007800EEF208EFF24F
:10096700780008E2FF24FFF218E2FE34FFF2EF4EB0
:10097700601F78027403F20874B6F2780208E2FF87
:1009870024FFF218E2FE34FFF2EF4E60D380EC80D2
:01099700CF90
:01099800223C
:100999007805E2FF7804EFF27816E2FF7804EFF2C7
:1009A9007827E2FF7804EFF27838E2FF7804EFF273
:0209B90080DEDE
:0109BB002219
:030000000208D41F
:0C08D400787FE4F6D8FD75810702091B4F
:1008E000020999E493A3F8E493A34003F68001F28C
:1008F00008DFF48029E493A3F85407240CC8C33319
:10090000C4540F4420C8834004F456800146F6DFE7
:10091000E4800B0102040810204080900800E47E6F
:10092000019360BCA3FF543F30E509541FFEE493DC
:10093000A360010ECF54C025E060A840B8E493A3A3
:10094000FAE493A3F8E493A3C8C582C8CAC583CACE
:10095000F0A3C8C582C8CAC583CADFE9DEE780BE86
:0108D3000024
:00000001FF
