:10412200080813110F0E0C0B0A091010020B024B98
:0C413200029302BA0311037003DC0417AF
:0741B400E4FF0FBF1FFC0F29
:0141BB0022E1
:10418B00E4FFFE0FBF00010EEF647C4E70F50526B9
:01419B002201
:0941AA00E4FD12418B0DBD0AF980
:0141B30022E9
:1040E000E4F523F522F521F520E47FC57E02FDFCF1
:1040F000AB23AA22A921A820C312413F501BE4FAF6
:10410000F9F8E5232401F523EA3522F522E93521E2
:10411000F521E83520F52080D0E4FF0FBF05FC0F26
:014120000F8F
:01412100227B
:10415500E4F5271240E00527C3E5276480948A40EB
:01416500F267
:014166002236
:10416700E4F5281241550528C3E5286480948A4060
:01417700F255
:014178002224
:10417900E4F5291241670529C3E5296480948A4039
:01418900F243
:01418A002212
:0D419C00EF600AE4FE0EBE1FFC0E1F80F354
:0141A90022F3
:10408C00E4F580FDFCED25E02410F8E6F52408E6C7
:10409C00F52574082DF8E6F9E4FBFAC3EB9525E554
:1040AC00246480F8EA648098501DE4FEC3E96480BF
:1040BC00F8EE64809850061241B40E80EF6380FFD6
:1040CC000BBB00010A80D40DBD00010CED64084C43
:0440DC0070B380FE3F
:03000000024000BB
:0C400000787FE4F6D8FD75812902404766
:10413F00EB9FF5F0EA9E42F0E99D42F0EC6480C8F7
:06414F0064809845F02297
:10400C0002408CE493A3F8E493A34003F68001F2FE
:10401C0008DFF48029E493A3F85407240CC8C333B5
:10402C00C4540F4420C8834004F456800146F6DF84
:10403C00E4800B0102040810204080904122E47EB1
:10404C00019360BCA3FF543F30E509541FFEE49379
:10405C00A360010ECF54C025E060A840B8E493A340
:10406C00FAE493A3F8E493A3C8C582C8CAC583CA6B
:10407C00F0A3C8C582C8CAC583CADFE9DEE780BE23
:01413E000080
:00000001FF
