:07000300E4FF0FBF1FFC0F1B
:01000A0022D3
:10000B00E4FFFE0FBF00010EEF647C4E70F5050898
:01001B0022C2
:09001C00E4FD12000B0DBD0AF910
:0100250022B8
:10002600751500751400751300751200AF15AE1422
:10003600AD13AC121201397F017E007D007C0012E7
:1000460000FB8F158E148D138C127FC57E027D00EA
:100056007C00120139AF15AE14AD13AC1212010EAD
:0A00660040CAE4FF0FBF05FC0F0FB6
:01007000226D
:09007100E4FB1200260BBB0AF9A6
:01007A002263
:09007B00E4FA1200710ABA0AF954
:010084002259
:09008500E4F912007B09B90AF943
:01008E00224F
:0D008F00EF600AE4FE0EBE1FFC0E1F80F3A2
:01009C002241
:10009D00E4F511E511F4F5807955E9F4F5907B015E
:1000AD007A01EAF4F5B0F5A01200260511E511F478
:1000BD00F580B955047FAA80027F55A907E9F4F5AB
:1000CD0090BA80047A018004EA25E0FAEAF4F5A0FA
:1000DD00BB01047B808004EBC313FBEBF4F5B08014
:0100ED00C74B
:0100EE0022EF
:030000000200EF0C
:0C00EF00787FE4F6D8FD75811502009DB5
:1000FB00EF250CFFEE350BFEED350AFDEC3509FC5B
:03010B000201608E
:10010E00C3EF950CF8EE950B48F8ED950A48F8EC10
:10011E009509A2E748F830D201B392D5D082D083A8
:0B012E00120158E8A2D5C083C0822255
:10013900E50D050D6010D0F0D0E0C009C00AC00B74
:10014900C00CC0E0C0F08F0C8E0B8D0A8C0922AF59
:100159000CAE0BAD0AAC09E50D146010D0F0D0E07F
:0F016900D00CD00BD00AD009C0E0C0F0150D2289
:00000001FF
