:090003007401D2D5D2D5D2D52268
:09000C007402D2D5D2D5D2D5225E
:090015007403D2D5D2D5D2D52254
:09001E007404D2D5D2D5D2D5224A
:090027007405D2D5D2D5D2D52240
:090030007406D2D5D2D5D2D52236
:090039007407D2D5D2D5D2D5222C
:090042008F08D2D5D2D5D2D52207
:10004B007F7FEFF4F5807E0112001EBE0107EFC328
:10005B0013FF430780EE7005EF25E0FF0FEF20E065
:0F006B0002E4FEEF20E7027E01EFF4F58080D97A
:01007A002263
:0300000002007B80
:0C007B00787FE4F6D8FD75810802004B88
:00000001FF
