:07000300E4FF0FBF1FFC0F1B
:01000A0022D3
:10000B00E4FFFE0FBF00010EEF647C4E70F5050898
:01001B0022C2
:09001C00E4FD12000B0DBD0AF910
:0100250022B8
:10002600751100751000750F00750E00AF11AE103A
:10003600AD0FAC0E1201067F017E007D007C001222
:1000460000C88F118E108D0F8C0E7FC57E027D002D
:100056007C00120106AF11AE10AD0FAC0E1200DB24
:0A00660040CAE4FF0FBF05FC0F0FB6
:01007000226D
:09007100E4FB1200260BBB0AF9A6
:01007A002263
:09007B00E4FA1200710ABA0AF954
:010084002259
:09008500E4F912007B09B90AF943
:01008E00224F
:0D008F00EF600AE4FE0EBE1FFC0E1F80F3A2
:01009C002241
:10009D007580C0120026E58030E00BE580C313F5B6
:0F00AD008043808080EDE580C313F58080E522DD
:030000000200BC3F
:0C00BC00787FE4F6D8FD75811102009DEC
:1000C800EF250CFFEE350BFEED350AFDEC3509FC8E
:0300D80002012DF5
:1000DB00C3EF950CF8EE950B48F8ED950A48F8EC44
:1000EB009509A2E748F830D201B392D5D082D083DC
:0B00FB00120125E8A2D5C083C08222BC
:10010600E50D050D6010D0F0D0E0C009C00AC00BA7
:10011600C00CC0E0C0F08F0C8E0B8D0A8C0922AF8C
:100126000CAE0BAD0AAC09E50D146010D0F0D0E0B2
:0F013600D00CD00BD00AD009C0E0C0F0150D22BC
:00000001FF
